:060000000A128A11EA2F2A
:100CFC000230FD000430FC00BA30FB00FB0B842EEC
:100D0C00FC0B842EFD0B842E00000A128A1129275D
:100D1C000A128A111E2F9F18942E952EAB2E9F18F7
:100D2C00982E992EAB2E24082504031D9E2E9F2E43
:100D3C00AB2E1E08F500831603131E08F4000130B9
:100D4C0083120313A4000030A50075087302031D61
:100D5C00B12E740872020318B42EB52EC72E2208B9
:100D6C002304031DBA2EBB2EC72E7208013EF200BF
:100D7C0073080318013E003EF3000130A20000305E
:100D8C00A30073087502031DCD2E7208740203189C
:100D9C00D02ED12EE32E20082104031DD62ED72EC3
:100DAC00E32E7208FF3EF20073080318013EFF3E6B
:100DBC00F3000130A0000030A1002830700671044F
:100DCC00031DE92EEA2E162F9F149F14A401A501D2
:100DDC00A201A301A001A1011E30F6000030F70012
:100DEC007708FC007608FB000310FC0CFB0C0310CE
:100DFC00FC0CFB0C7B089500CF30FB007B089705A7
:100E0C007608FB0003300310FB0DFF3E031D092F7A
:100E1C0003107B0D3039FC007C089704F001F101C4
:100E2C007008013EF00071080318013E003EF1000D
:100E3C0083120313260327040319252F262F912E23
:100E4C000A128A11002883120313A601A701F601C6
:100E5C00F701F401F501F201F301F001F101A40134
:100E6C00A501A201A301A001A101703083160313F7
:100E7C008F040F140F158F148F11E030900583160B
:100E8C000317891209128911091189100914881381
:100E9C000813881208128811081188100810831280
:100EAC0003131F179F13831603131F129F12831212
:100EBC0003131F08C33920389F00831603139F1791
:100ECC00831203131F149F149F148316031385138B
:100EDC000513851205128511051185100510861351
:100EEC000613861206128611061186100610871339
:100EFC000713871207128711071187100710881321
:100F0C00081388120812881108118810081089110A
:100F1C00091189100910831203130510851005118E
:100F2C0085110512851205138513061086100611FE
:100F3C0086110612861206138613071087100711E6
:100F4C0087110712871207138713081088100811CE
:100F5C0088110812881208138813091089100911B6
:100F6C0089119501171297121708F0390C38970050
:100F7C001D08F0390C389D003F3097050930831659
:100F8C0003139200FC3083120313920587309205F1
:100F9C0091011215831603138111073081048112FC
:100FAC00013083120313A6000030A7000230FA00B0
:100FBC000430F900BA30F800F80BE22FF90BE22FED
:100FCC00FA0BE22F00000800F001F101F201F3012D
:100FDC00F401F501F601F70183120313A001A1013D
:100FEC00A201A301A401A501A601A70183010A1274
:040FFC008A117E2EAA
:08400000FF3FFF3FFF3FFF3FC0
:04400E00C42BFF3F81
:00000001FF
